{
  "contractName": "DNN",
  "abi": [
    {
      "inputs": [],
      "stateMutability": "nonpayable",
      "type": "constructor"
    },
    {
      "anonymous": false,
      "inputs": [
        {
          "indexed": false,
          "internalType": "uint256",
          "name": "articleId",
          "type": "uint256"
        },
        {
          "indexed": false,
          "internalType": "string",
          "name": "articleTopic",
          "type": "string"
        },
        {
          "indexed": false,
          "internalType": "string",
          "name": "articleDescription",
          "type": "string"
        },
        {
          "indexed": false,
          "internalType": "uint256",
          "name": "uploadTime",
          "type": "uint256"
        },
        {
          "indexed": false,
          "internalType": "address",
          "name": "auther",
          "type": "address"
        },
        {
          "indexed": false,
          "internalType": "uint256",
          "name": "voteId",
          "type": "uint256"
        }
      ],
      "name": "ArticleUploaded",
      "type": "event"
    },
    {
      "anonymous": false,
      "inputs": [
        {
          "indexed": false,
          "internalType": "uint256",
          "name": "commentId",
          "type": "uint256"
        },
        {
          "indexed": false,
          "internalType": "uint256",
          "name": "articleId",
          "type": "uint256"
        },
        {
          "indexed": false,
          "internalType": "address",
          "name": "auther",
          "type": "address"
        },
        {
          "indexed": false,
          "internalType": "string",
          "name": "message",
          "type": "string"
        },
        {
          "indexed": false,
          "internalType": "uint256",
          "name": "voteId",
          "type": "uint256"
        }
      ],
      "name": "CommentCreated",
      "type": "event"
    },
    {
      "anonymous": false,
      "inputs": [
        {
          "indexed": false,
          "internalType": "uint256",
          "name": "articleId",
          "type": "uint256"
        },
        {
          "indexed": false,
          "internalType": "string",
          "name": "fileHash",
          "type": "string"
        },
        {
          "indexed": false,
          "internalType": "uint256",
          "name": "fileSize",
          "type": "uint256"
        },
        {
          "indexed": false,
          "internalType": "string",
          "name": "fileType",
          "type": "string"
        },
        {
          "indexed": false,
          "internalType": "string",
          "name": "fileName",
          "type": "string"
        },
        {
          "indexed": false,
          "internalType": "string",
          "name": "fileDescription",
          "type": "string"
        },
        {
          "indexed": false,
          "internalType": "uint256",
          "name": "uploadTime",
          "type": "uint256"
        },
        {
          "indexed": false,
          "internalType": "address",
          "name": "uploader",
          "type": "address"
        }
      ],
      "name": "FileUploaded",
      "type": "event"
    },
    {
      "anonymous": false,
      "inputs": [
        {
          "indexed": false,
          "internalType": "uint256",
          "name": "articleId",
          "type": "uint256"
        },
        {
          "indexed": false,
          "internalType": "uint256",
          "name": "summaryId",
          "type": "uint256"
        },
        {
          "indexed": false,
          "internalType": "string",
          "name": "description",
          "type": "string"
        },
        {
          "indexed": false,
          "internalType": "address",
          "name": "auther",
          "type": "address"
        },
        {
          "indexed": false,
          "internalType": "uint256",
          "name": "uploadTime",
          "type": "uint256"
        },
        {
          "indexed": false,
          "internalType": "uint256",
          "name": "voteId",
          "type": "uint256"
        }
      ],
      "name": "SummaryCreated",
      "type": "event"
    },
    {
      "anonymous": false,
      "inputs": [
        {
          "indexed": false,
          "internalType": "int256",
          "name": "voteCount",
          "type": "int256"
        }
      ],
      "name": "Upvoted",
      "type": "event"
    },
    {
      "anonymous": false,
      "inputs": [
        {
          "indexed": false,
          "internalType": "address",
          "name": "userId",
          "type": "address"
        },
        {
          "indexed": false,
          "internalType": "string",
          "name": "name",
          "type": "string"
        },
        {
          "indexed": false,
          "internalType": "string",
          "name": "email",
          "type": "string"
        }
      ],
      "name": "UserCreated",
      "type": "event"
    },
    {
      "inputs": [],
      "name": "articleCount",
      "outputs": [
        {
          "internalType": "uint256",
          "name": "",
          "type": "uint256"
        }
      ],
      "stateMutability": "view",
      "type": "function",
      "constant": true
    },
    {
      "inputs": [
        {
          "internalType": "uint256",
          "name": "",
          "type": "uint256"
        }
      ],
      "name": "articles",
      "outputs": [
        {
          "internalType": "uint256",
          "name": "articleId",
          "type": "uint256"
        },
        {
          "internalType": "string",
          "name": "articleTopic",
          "type": "string"
        },
        {
          "internalType": "string",
          "name": "articleDescription",
          "type": "string"
        },
        {
          "internalType": "string",
          "name": "additionalNewInfo",
          "type": "string"
        },
        {
          "internalType": "int256",
          "name": "noOfPositiveSummariesVotes",
          "type": "int256"
        },
        {
          "internalType": "int256",
          "name": "noOfNegativeSummariesVotes",
          "type": "int256"
        },
        {
          "internalType": "uint256",
          "name": "voteId",
          "type": "uint256"
        },
        {
          "internalType": "uint256",
          "name": "uploadTime",
          "type": "uint256"
        },
        {
          "internalType": "address",
          "name": "auther",
          "type": "address"
        }
      ],
      "stateMutability": "view",
      "type": "function",
      "constant": true
    },
    {
      "inputs": [],
      "name": "commentCount",
      "outputs": [
        {
          "internalType": "uint256",
          "name": "",
          "type": "uint256"
        }
      ],
      "stateMutability": "view",
      "type": "function",
      "constant": true
    },
    {
      "inputs": [
        {
          "internalType": "uint256",
          "name": "",
          "type": "uint256"
        }
      ],
      "name": "comments",
      "outputs": [
        {
          "internalType": "uint256",
          "name": "commentId",
          "type": "uint256"
        },
        {
          "internalType": "uint256",
          "name": "articleId",
          "type": "uint256"
        },
        {
          "internalType": "address",
          "name": "auther",
          "type": "address"
        },
        {
          "internalType": "string",
          "name": "message",
          "type": "string"
        },
        {
          "internalType": "uint256",
          "name": "voteId",
          "type": "uint256"
        }
      ],
      "stateMutability": "view",
      "type": "function",
      "constant": true
    },
    {
      "inputs": [],
      "name": "owner",
      "outputs": [
        {
          "internalType": "address",
          "name": "",
          "type": "address"
        }
      ],
      "stateMutability": "view",
      "type": "function",
      "constant": true
    },
    {
      "inputs": [
        {
          "internalType": "uint256",
          "name": "",
          "type": "uint256"
        }
      ],
      "name": "summaries",
      "outputs": [
        {
          "internalType": "uint256",
          "name": "summaryId",
          "type": "uint256"
        },
        {
          "internalType": "uint256",
          "name": "articleId",
          "type": "uint256"
        },
        {
          "internalType": "string",
          "name": "description",
          "type": "string"
        },
        {
          "internalType": "uint256",
          "name": "voteId",
          "type": "uint256"
        },
        {
          "internalType": "address",
          "name": "auther",
          "type": "address"
        },
        {
          "internalType": "uint256",
          "name": "uploadTime",
          "type": "uint256"
        },
        {
          "internalType": "uint256",
          "name": "motion",
          "type": "uint256"
        }
      ],
      "stateMutability": "view",
      "type": "function",
      "constant": true
    },
    {
      "inputs": [],
      "name": "summaryCount",
      "outputs": [
        {
          "internalType": "uint256",
          "name": "",
          "type": "uint256"
        }
      ],
      "stateMutability": "view",
      "type": "function",
      "constant": true
    },
    {
      "inputs": [
        {
          "internalType": "address",
          "name": "",
          "type": "address"
        }
      ],
      "name": "users",
      "outputs": [
        {
          "internalType": "address",
          "name": "userId",
          "type": "address"
        },
        {
          "internalType": "string",
          "name": "name",
          "type": "string"
        },
        {
          "internalType": "string",
          "name": "email",
          "type": "string"
        },
        {
          "internalType": "string",
          "name": "about",
          "type": "string"
        },
        {
          "internalType": "string",
          "name": "profilePhotoUrl",
          "type": "string"
        },
        {
          "internalType": "int8",
          "name": "privilege",
          "type": "int8"
        },
        {
          "internalType": "uint256",
          "name": "voteId",
          "type": "uint256"
        },
        {
          "internalType": "int256",
          "name": "articleVote",
          "type": "int256"
        },
        {
          "internalType": "int256",
          "name": "summaryVote",
          "type": "int256"
        },
        {
          "internalType": "int256",
          "name": "commentVote",
          "type": "int256"
        }
      ],
      "stateMutability": "view",
      "type": "function",
      "constant": true
    },
    {
      "inputs": [],
      "name": "voteCount",
      "outputs": [
        {
          "internalType": "uint256",
          "name": "",
          "type": "uint256"
        }
      ],
      "stateMutability": "view",
      "type": "function",
      "constant": true
    },
    {
      "inputs": [
        {
          "internalType": "uint256",
          "name": "",
          "type": "uint256"
        }
      ],
      "name": "votes",
      "outputs": [
        {
          "internalType": "int256",
          "name": "voteCount",
          "type": "int256"
        },
        {
          "internalType": "address",
          "name": "ifUserPresent",
          "type": "address"
        },
        {
          "internalType": "uint256",
          "name": "voteObject",
          "type": "uint256"
        },
        {
          "internalType": "uint256",
          "name": "id",
          "type": "uint256"
        }
      ],
      "stateMutability": "view",
      "type": "function",
      "constant": true
    },
    {
      "inputs": [
        {
          "internalType": "string",
          "name": "_name",
          "type": "string"
        },
        {
          "internalType": "string",
          "name": "_email",
          "type": "string"
        },
        {
          "internalType": "string",
          "name": "_about",
          "type": "string"
        },
        {
          "internalType": "string",
          "name": "_profilePhotoUrl",
          "type": "string"
        }
      ],
      "name": "login",
      "outputs": [],
      "stateMutability": "nonpayable",
      "type": "function"
    },
    {
      "inputs": [
        {
          "internalType": "int8",
          "name": "_action",
          "type": "int8"
        },
        {
          "internalType": "string",
          "name": "_aboutEmailPhoto",
          "type": "string"
        }
      ],
      "name": "changeAboutEmailPhoto",
      "outputs": [],
      "stateMutability": "nonpayable",
      "type": "function"
    },
    {
      "inputs": [
        {
          "internalType": "int8",
          "name": "_position",
          "type": "int8"
        },
        {
          "internalType": "address",
          "name": "_candidate",
          "type": "address"
        }
      ],
      "name": "ownerUpgradePosition",
      "outputs": [],
      "stateMutability": "nonpayable",
      "type": "function"
    },
    {
      "inputs": [
        {
          "internalType": "string",
          "name": "_articleTopic",
          "type": "string"
        },
        {
          "internalType": "string",
          "name": "_articleDescription",
          "type": "string"
        }
      ],
      "name": "uploadArticle",
      "outputs": [],
      "stateMutability": "nonpayable",
      "type": "function"
    },
    {
      "inputs": [
        {
          "internalType": "string",
          "name": "_newInfo",
          "type": "string"
        },
        {
          "internalType": "uint256",
          "name": "_articleId",
          "type": "uint256"
        }
      ],
      "name": "additionalNewInfo",
      "outputs": [],
      "stateMutability": "nonpayable",
      "type": "function"
    },
    {
      "inputs": [
        {
          "internalType": "string",
          "name": "_description",
          "type": "string"
        },
        {
          "internalType": "uint256",
          "name": "_articleId",
          "type": "uint256"
        },
        {
          "internalType": "uint256",
          "name": "_motion",
          "type": "uint256"
        }
      ],
      "name": "createSummary",
      "outputs": [],
      "stateMutability": "nonpayable",
      "type": "function"
    },
    {
      "inputs": [
        {
          "internalType": "int8",
          "name": "_action",
          "type": "int8"
        },
        {
          "internalType": "uint256",
          "name": "_Id",
          "type": "uint256"
        },
        {
          "internalType": "string",
          "name": "_fileHash",
          "type": "string"
        },
        {
          "internalType": "uint256",
          "name": "_fileSize",
          "type": "uint256"
        },
        {
          "internalType": "string",
          "name": "_fileType",
          "type": "string"
        },
        {
          "internalType": "string",
          "name": "_fileName",
          "type": "string"
        },
        {
          "internalType": "string",
          "name": "_fileDescription",
          "type": "string"
        }
      ],
      "name": "uploadMedia",
      "outputs": [],
      "stateMutability": "nonpayable",
      "type": "function"
    },
    {
      "inputs": [
        {
          "internalType": "int8",
          "name": "_action",
          "type": "int8"
        },
        {
          "internalType": "uint256",
          "name": "_Id",
          "type": "uint256"
        },
        {
          "internalType": "string",
          "name": "_message",
          "type": "string"
        }
      ],
      "name": "commentArticle",
      "outputs": [],
      "stateMutability": "nonpayable",
      "type": "function"
    },
    {
      "inputs": [
        {
          "internalType": "uint256",
          "name": "_voteId",
          "type": "uint256"
        },
        {
          "internalType": "bool",
          "name": "_vote",
          "type": "bool"
        }
      ],
      "name": "upvote",
      "outputs": [],
      "stateMutability": "nonpayable",
      "type": "function"
    },
    {
      "inputs": [
        {
          "internalType": "uint256",
          "name": "_voteId",
          "type": "uint256"
        }
      ],
      "name": "whetherVoted",
      "outputs": [
        {
          "internalType": "int8",
          "name": "",
          "type": "int8"
        }
      ],
      "stateMutability": "view",
      "type": "function",
      "constant": true
    },
    {
      "inputs": [
        {
          "internalType": "address",
          "name": "_userId",
          "type": "address"
        }
      ],
      "name": "getUserArticles",
      "outputs": [
        {
          "components": [
            {
              "internalType": "uint256",
              "name": "articleId",
              "type": "uint256"
            },
            {
              "internalType": "string",
              "name": "articleTopic",
              "type": "string"
            },
            {
              "internalType": "string",
              "name": "articleDescription",
              "type": "string"
            },
            {
              "internalType": "string",
              "name": "additionalNewInfo",
              "type": "string"
            },
            {
              "internalType": "int256",
              "name": "noOfPositiveSummariesVotes",
              "type": "int256"
            },
            {
              "internalType": "int256",
              "name": "noOfNegativeSummariesVotes",
              "type": "int256"
            },
            {
              "internalType": "uint256",
              "name": "voteId",
              "type": "uint256"
            },
            {
              "internalType": "uint256",
              "name": "uploadTime",
              "type": "uint256"
            },
            {
              "internalType": "address",
              "name": "auther",
              "type": "address"
            },
            {
              "internalType": "uint256[]",
              "name": "summaryIds",
              "type": "uint256[]"
            },
            {
              "components": [
                {
                  "internalType": "uint256",
                  "name": "articleId",
                  "type": "uint256"
                },
                {
                  "internalType": "string",
                  "name": "fileHash",
                  "type": "string"
                },
                {
                  "internalType": "uint256",
                  "name": "fileSize",
                  "type": "uint256"
                },
                {
                  "internalType": "string",
                  "name": "fileType",
                  "type": "string"
                },
                {
                  "internalType": "string",
                  "name": "fileName",
                  "type": "string"
                },
                {
                  "internalType": "string",
                  "name": "fileDescription",
                  "type": "string"
                },
                {
                  "internalType": "uint256",
                  "name": "uploadTime",
                  "type": "uint256"
                },
                {
                  "internalType": "address",
                  "name": "uploader",
                  "type": "address"
                }
              ],
              "internalType": "struct File[]",
              "name": "files",
              "type": "tuple[]"
            },
            {
              "internalType": "uint256[]",
              "name": "commentIds",
              "type": "uint256[]"
            }
          ],
          "internalType": "struct Article[]",
          "name": "",
          "type": "tuple[]"
        }
      ],
      "stateMutability": "view",
      "type": "function",
      "constant": true
    },
    {
      "inputs": [
        {
          "internalType": "address",
          "name": "_userId",
          "type": "address"
        }
      ],
      "name": "getSummaries",
      "outputs": [
        {
          "components": [
            {
              "internalType": "uint256",
              "name": "summaryId",
              "type": "uint256"
            },
            {
              "internalType": "uint256",
              "name": "articleId",
              "type": "uint256"
            },
            {
              "internalType": "string",
              "name": "description",
              "type": "string"
            },
            {
              "internalType": "uint256",
              "name": "voteId",
              "type": "uint256"
            },
            {
              "internalType": "address",
              "name": "auther",
              "type": "address"
            },
            {
              "internalType": "uint256",
              "name": "uploadTime",
              "type": "uint256"
            },
            {
              "internalType": "uint256",
              "name": "motion",
              "type": "uint256"
            },
            {
              "components": [
                {
                  "internalType": "uint256",
                  "name": "articleId",
                  "type": "uint256"
                },
                {
                  "internalType": "string",
                  "name": "fileHash",
                  "type": "string"
                },
                {
                  "internalType": "uint256",
                  "name": "fileSize",
                  "type": "uint256"
                },
                {
                  "internalType": "string",
                  "name": "fileType",
                  "type": "string"
                },
                {
                  "internalType": "string",
                  "name": "fileName",
                  "type": "string"
                },
                {
                  "internalType": "string",
                  "name": "fileDescription",
                  "type": "string"
                },
                {
                  "internalType": "uint256",
                  "name": "uploadTime",
                  "type": "uint256"
                },
                {
                  "internalType": "address",
                  "name": "uploader",
                  "type": "address"
                }
              ],
              "internalType": "struct File[]",
              "name": "files",
              "type": "tuple[]"
            },
            {
              "internalType": "uint256[]",
              "name": "commentIds",
              "type": "uint256[]"
            }
          ],
          "internalType": "struct Summary[]",
          "name": "",
          "type": "tuple[]"
        }
      ],
      "stateMutability": "view",
      "type": "function",
      "constant": true
    },
    {
      "inputs": [
        {
          "internalType": "uint256",
          "name": "_articleId",
          "type": "uint256"
        }
      ],
      "name": "getSummariesA",
      "outputs": [
        {
          "components": [
            {
              "internalType": "uint256",
              "name": "summaryId",
              "type": "uint256"
            },
            {
              "internalType": "uint256",
              "name": "articleId",
              "type": "uint256"
            },
            {
              "internalType": "string",
              "name": "description",
              "type": "string"
            },
            {
              "internalType": "uint256",
              "name": "voteId",
              "type": "uint256"
            },
            {
              "internalType": "address",
              "name": "auther",
              "type": "address"
            },
            {
              "internalType": "uint256",
              "name": "uploadTime",
              "type": "uint256"
            },
            {
              "internalType": "uint256",
              "name": "motion",
              "type": "uint256"
            },
            {
              "components": [
                {
                  "internalType": "uint256",
                  "name": "articleId",
                  "type": "uint256"
                },
                {
                  "internalType": "string",
                  "name": "fileHash",
                  "type": "string"
                },
                {
                  "internalType": "uint256",
                  "name": "fileSize",
                  "type": "uint256"
                },
                {
                  "internalType": "string",
                  "name": "fileType",
                  "type": "string"
                },
                {
                  "internalType": "string",
                  "name": "fileName",
                  "type": "string"
                },
                {
                  "internalType": "string",
                  "name": "fileDescription",
                  "type": "string"
                },
                {
                  "internalType": "uint256",
                  "name": "uploadTime",
                  "type": "uint256"
                },
                {
                  "internalType": "address",
                  "name": "uploader",
                  "type": "address"
                }
              ],
              "internalType": "struct File[]",
              "name": "files",
              "type": "tuple[]"
            },
            {
              "internalType": "uint256[]",
              "name": "commentIds",
              "type": "uint256[]"
            }
          ],
          "internalType": "struct Summary[]",
          "name": "",
          "type": "tuple[]"
        }
      ],
      "stateMutability": "view",
      "type": "function",
      "constant": true
    },
    {
      "inputs": [
        {
          "internalType": "int8",
          "name": "_action",
          "type": "int8"
        },
        {
          "internalType": "uint256",
          "name": "_Id",
          "type": "uint256"
        }
      ],
      "name": "getFiles",
      "outputs": [
        {
          "components": [
            {
              "internalType": "uint256",
              "name": "articleId",
              "type": "uint256"
            },
            {
              "internalType": "string",
              "name": "fileHash",
              "type": "string"
            },
            {
              "internalType": "uint256",
              "name": "fileSize",
              "type": "uint256"
            },
            {
              "internalType": "string",
              "name": "fileType",
              "type": "string"
            },
            {
              "internalType": "string",
              "name": "fileName",
              "type": "string"
            },
            {
              "internalType": "string",
              "name": "fileDescription",
              "type": "string"
            },
            {
              "internalType": "uint256",
              "name": "uploadTime",
              "type": "uint256"
            },
            {
              "internalType": "address",
              "name": "uploader",
              "type": "address"
            }
          ],
          "internalType": "struct File[]",
          "name": "",
          "type": "tuple[]"
        }
      ],
      "stateMutability": "view",
      "type": "function",
      "constant": true
    },
    {
      "inputs": [
        {
          "internalType": "address",
          "name": "_userId",
          "type": "address"
        }
      ],
      "name": "getComments",
      "outputs": [
        {
          "components": [
            {
              "internalType": "uint256",
              "name": "commentId",
              "type": "uint256"
            },
            {
              "internalType": "uint256",
              "name": "articleId",
              "type": "uint256"
            },
            {
              "internalType": "address",
              "name": "auther",
              "type": "address"
            },
            {
              "internalType": "string",
              "name": "message",
              "type": "string"
            },
            {
              "internalType": "uint256",
              "name": "voteId",
              "type": "uint256"
            }
          ],
          "internalType": "struct Comment[]",
          "name": "",
          "type": "tuple[]"
        }
      ],
      "stateMutability": "view",
      "type": "function",
      "constant": true
    },
    {
      "inputs": [
        {
          "internalType": "int8",
          "name": "_action",
          "type": "int8"
        },
        {
          "internalType": "uint256",
          "name": "_Id",
          "type": "uint256"
        }
      ],
      "name": "getComments",
      "outputs": [
        {
          "components": [
            {
              "internalType": "uint256",
              "name": "commentId",
              "type": "uint256"
            },
            {
              "internalType": "uint256",
              "name": "articleId",
              "type": "uint256"
            },
            {
              "internalType": "address",
              "name": "auther",
              "type": "address"
            },
            {
              "internalType": "string",
              "name": "message",
              "type": "string"
            },
            {
              "internalType": "uint256",
              "name": "voteId",
              "type": "uint256"
            }
          ],
          "internalType": "struct Comment[]",
          "name": "",
          "type": "tuple[]"
        }
      ],
      "stateMutability": "view",
      "type": "function",
      "constant": true
    },
    {
      "inputs": [
        {
          "internalType": "address",
          "name": "_userId",
          "type": "address"
        }
      ],
      "name": "getUserVotes",
      "outputs": [
        {
          "components": [
            {
              "internalType": "uint256",
              "name": "voteObject",
              "type": "uint256"
            },
            {
              "internalType": "int8",
              "name": "voteState",
              "type": "int8"
            },
            {
              "internalType": "bytes",
              "name": "id",
              "type": "bytes"
            }
          ],
          "internalType": "struct VoteReturn[]",
          "name": "",
          "type": "tuple[]"
        }
      ],
      "stateMutability": "view",
      "type": "function",
      "constant": true
    },
    {
      "inputs": [
        {
          "internalType": "address",
          "name": "_userId",
          "type": "address"
        }
      ],
      "name": "getUserStat",
      "outputs": [
        {
          "internalType": "uint256",
          "name": "",
          "type": "uint256"
        },
        {
          "internalType": "uint256",
          "name": "",
          "type": "uint256"
        },
        {
          "internalType": "uint256",
          "name": "",
          "type": "uint256"
        },
        {
          "internalType": "uint256",
          "name": "",
          "type": "uint256"
        }
      ],
      "stateMutability": "view",
      "type": "function",
      "constant": true
    }
  ],
  "bytecode": "0x608060405234801561001057600080fd5b50336000806101000a81548173ffffffffffffffffffffffffffffffffffffffff021916908373ffffffffffffffffffffffffffffffffffffffff160217905550614571806100606000396000f3fe608060405234801561001057600080fd5b50600436106101c45760003560e01c8063a01000b8116100f9578063ca5648a911610097578063d1a727d311610071578063d1a727d314610590578063edcfafe6146105ac578063edfb4cf9146105e4578063f9880f3614610600576101c4565b8063ca5648a914610514578063cb9b20e514610530578063cedf709c14610560576101c4565b8063b1d94c6b116100d3578063b1d94c6b1461048e578063b24f71e2146104aa578063c255e29f146104da578063c6384071146104f6576101c4565b8063a01000b814610409578063a87430ba14610425578063afa3c14f1461045e576101c4565b806382526a53116101665780638da5cb5b116101405780638da5cb5b146103515780638ebb4c151461036f578063950c7822146103a35780639696d83d146103d3576101c4565b806382526a53146102e95780638601680a1461031957806387fcb03414610335576101c4565b80634bb160d3116101a25780634bb160d3146102355780635df8133014610265578063705353661461029857806378c73492146102cb576101c4565b806317fe375f146101c9578063414e28b0146101f957806345ff20de14610217575b600080fd5b6101e360048036038101906101de91906119c1565b61061c565b6040516101f09190611be7565b60405180910390f35b6102016106a8565b60405161020e9190611c18565b60405180910390f35b61021f6106ae565b60405161022c9190611c18565b60405180910390f35b61024f600480360381019061024a9190611c5f565b6106b4565b60405161025c9190611ca8565b60405180910390f35b61027f600480360381019061027a9190611c5f565b61071e565b60405161028f9493929190611ceb565b60405180910390f35b6102b260048036038101906102ad91906119c1565b61076e565b6040516102c29493929190611d30565b60405180910390f35b6102d36107fe565b6040516102e09190611c18565b60405180910390f35b61030360048036038101906102fe9190611c5f565b610804565b6040516103109190612140565b60405180910390f35b610333600480360381019061032e91906122c3565b610890565b005b61034f600480360381019061034a9190612332565b6109e4565b005b610359610a54565b604051610366919061238e565b60405180910390f35b61038960048036038101906103849190611c5f565b610a78565b60405161039a9594939291906123f3565b60405180910390f35b6103bd60048036038101906103b891906119c1565b610b56565b6040516103ca91906125c3565b60405180910390f35b6103ed60048036038101906103e89190611c5f565b610be2565b60405161040097969594939291906125e5565b60405180910390f35b610423600480360381019061041e919061265b565b610ccc565b005b61043f600480360381019061043a91906119c1565b610ddd565b6040516104559a999897969594939291906126ca565b60405180910390f35b61047860048036038101906104739190612782565b61107e565b6040516104859190611be7565b60405180910390f35b6104a860048036038101906104a391906127fa565b611110565b005b6104c460048036038101906104bf91906119c1565b6111d9565b6040516104d19190612140565b60405180910390f35b6104f460048036038101906104ef919061283a565b611265565b005b6104fe6112f7565b60405161050b9190611c18565b60405180910390f35b61052e6004803603810190610529919061287a565b6112fd565b005b61054a600480360381019061054591906119c1565b611382565b6040516105579190612b84565b60405180910390f35b61057a60048036038101906105759190612782565b61140e565b6040516105879190612c2c565b60405180910390f35b6105aa60048036038101906105a59190612c4e565b61149d565b005b6105c660048036038101906105c19190611c5f565b6115a7565b6040516105db99989796959493929190612cc6565b60405180910390f35b6105fe60048036038101906105f99190612d68565b6117ad565b005b61061a60048036038101906106159190612dc4565b6117dc565b005b606073__getDNN________________________________63ea5985af60066008856040518463ffffffff1660e01b815260040161065b93929190612eb8565b600060405180830381865af4158015610678573d6000803e3d6000fd5b505050506040513d6000823e3d601f19601f820116820180604052508101906106a19190613121565b9050919050565b60015481565b60025481565b60006009600083815260200190815260200160002060000160003373ffffffffffffffffffffffffffffffffffffffff1673ffffffffffffffffffffffffffffffffffffffff16815260200190815260200160002060009054906101000a900460000b9050919050565b60096020528060005260406000206000915090508060010154908060020160009054906101000a900473ffffffffffffffffffffffffffffffffffffffff16908060030154908060040154905084565b60008060008073__getDNN________________________________6331dfb3bb6008876040518363ffffffff1660e01b81526004016107ae92919061316a565b608060405180830381865af41580156107cb573d6000803e3d6000fd5b505050506040513d601f19601f820116820180604052508101906107ef9190613193565b93509350935093509193509193565b60035481565b606073__getDNN________________________________63593469fc60056007856040518463ffffffff1660e01b815260040161084393929190613217565b600060405180830381865af4158015610860573d6000803e3d6000fd5b505050506040513d6000823e3d601f19601f820116820180604052508101906108899190613741565b9050919050565b73__setDNN________________________________63453e294560086005600154600660025460035460045460078c8c8c6040518c63ffffffff1660e01b81526004016108e79b9a999897969594939291906137e3565b60006040518083038186803b1580156108ff57600080fd5b505af4158015610913573d6000803e3d6000fd5b505050506003600960006004548152602001908152602001600020600301819055506002546009600060045481526020019081526020016000206004018190555060046000815480929190610967906138c4565b91905055506002600081548092919061097f906138c4565b91905055507f421f804a0b21938816743b4f5bf6076d33137a72a0eaebd93abd7e2fd7ac207160016002546109b4919061390d565b83338460016004546109c6919061390d565b6040516109d79594939291906123f3565b60405180910390a1505050565b73__setDNN________________________________631c35c0f9600884846040518463ffffffff1660e01b8152600401610a2093929190613941565b60006040518083038186803b158015610a3857600080fd5b505af4158015610a4c573d6000803e3d6000fd5b505050505050565b60008054906101000a900473ffffffffffffffffffffffffffffffffffffffff1681565b60066020528060005260406000206000915090508060000154908060010154908060020160009054906101000a900473ffffffffffffffffffffffffffffffffffffffff1690806003018054610acd906139ae565b80601f0160208091040260200160405190810160405280929190818152602001828054610af9906139ae565b8015610b465780601f10610b1b57610100808354040283529160200191610b46565b820191906000526020600020905b815481529060010190602001808311610b2957829003601f168201915b5050505050908060040154905085565b606073__getDNN________________________________632959480760086009856040518463ffffffff1660e01b8152600401610b95939291906139e7565b600060405180830381865af4158015610bb2573d6000803e3d6000fd5b505050506040513d6000823e3d601f19601f82011682018060405250810190610bdb9190613c35565b9050919050565b6007602052806000526040600020600091509050806000015490806001015490806002018054610c11906139ae565b80601f0160208091040260200160405190810160405280929190818152602001828054610c3d906139ae565b8015610c8a5780601f10610c5f57610100808354040283529160200191610c8a565b820191906000526020600020905b815481529060010190602001808311610c6d57829003601f168201915b5050505050908060030154908060040160009054906101000a900473ffffffffffffffffffffffffffffffffffffffff16908060050154908060060154905087565b73__setDNN________________________________634f71876860096008600560035460076004548a8a8a6040518a63ffffffff1660e01b8152600401610d1b99989796959493929190613c7e565b60006040518083038186803b158015610d3357600080fd5b505af4158015610d47573d6000803e3d6000fd5b5050505060046000815480929190610d5e906138c4565b919050555060036000815480929190610d76906138c4565b91905055507f90a5790524b576c783e285a5ff4df4688b620a4af8c04f9938ad00710e5e0e75826001600354610dac919061390d565b8533426001600454610dbe919061390d565b604051610dd096959493929190613d12565b60405180910390a1505050565b60086020528060005260406000206000915090508060000160009054906101000a900473ffffffffffffffffffffffffffffffffffffffff1690806001018054610e26906139ae565b80601f0160208091040260200160405190810160405280929190818152602001828054610e52906139ae565b8015610e9f5780601f10610e7457610100808354040283529160200191610e9f565b820191906000526020600020905b815481529060010190602001808311610e8257829003601f168201915b505050505090806002018054610eb4906139ae565b80601f0160208091040260200160405190810160405280929190818152602001828054610ee0906139ae565b8015610f2d5780601f10610f0257610100808354040283529160200191610f2d565b820191906000526020600020905b815481529060010190602001808311610f1057829003601f168201915b505050505090806003018054610f42906139ae565b80601f0160208091040260200160405190810160405280929190818152602001828054610f6e906139ae565b8015610fbb5780601f10610f9057610100808354040283529160200191610fbb565b820191906000526020600020905b815481529060010190602001808311610f9e57829003601f168201915b505050505090806004018054610fd0906139ae565b80601f0160208091040260200160405190810160405280929190818152602001828054610ffc906139ae565b80156110495780601f1061101e57610100808354040283529160200191611049565b820191906000526020600020905b81548152906001019060200180831161102c57829003601f168201915b5050505050908060050160009054906101000a900460000b9080600601549080600901549080600a01549080600b015490508a565b606073__getDNN________________________________631af3625a60056007600687876040518663ffffffff1660e01b81526004016110c2959493929190613d7a565b600060405180830381865af41580156110df573d6000803e3d6000fd5b505050506040513d6000823e3d601f19601f820116820180604052508101906111089190613121565b905092915050565b73__setDNN________________________________63a8cf81616006600860096007600588886040518863ffffffff1660e01b81526004016111589796959493929190613ddc565b60006040518083038186803b15801561117057600080fd5b505af4158015611184573d6000803e3d6000fd5b505050507f7e321a2125f037ae031e894fcce6a8f8b334d7322278aa7f59c7f9bf979e986c60096000848152602001908152602001600020600101546040516111cd9190613e4b565b60405180910390a15050565b606073__getDNN________________________________63b23ad35560076008856040518463ffffffff1660e01b815260040161121893929190613e66565b600060405180830381865af4158015611235573d6000803e3d6000fd5b505050506040513d6000823e3d601f19601f8201168201806040525081019061125e9190613741565b9050919050565b73__setDNN________________________________637967b07c60008054906101000a900473ffffffffffffffffffffffffffffffffffffffff16600885856040518563ffffffff1660e01b81526004016112c39493929190613e9d565b60006040518083038186803b1580156112db57600080fd5b505af41580156112ef573d6000803e3d6000fd5b505050505050565b60045481565b73__setDNN________________________________636c5b8f086008600560078b8b8b8b8b8b8b6040518b63ffffffff1660e01b81526004016113499a99989796959493929190613ee2565b60006040518083038186803b15801561136157600080fd5b505af4158015611375573d6000803e3d6000fd5b5050505050505050505050565b606073__getDNN________________________________633951091c60056008856040518463ffffffff1660e01b81526004016113c193929190613f9a565b600060405180830381865af41580156113de573d6000803e3d6000fd5b505050506040513d6000823e3d601f19601f8201168201806040525081019061140791906142a8565b9050919050565b606073__getDNN________________________________632d9102256005600786866040518563ffffffff1660e01b815260040161144f94939291906142f1565b600060405180830381865af415801561146c573d6000803e3d6000fd5b505050506040513d6000823e3d601f19601f820116820180604052508101906114959190614336565b905092915050565b73__setDNN________________________________630d25d06060096008600560015460045488886040518863ffffffff1660e01b81526004016114e7979695949392919061437f565b60006040518083038186803b1580156114ff57600080fd5b505af4158015611513573d6000803e3d6000fd5b505050506004600081548092919061152a906138c4565b919050555060016000815480929190611542906138c4565b91905055507feb79132e1125dd108e1446258f7456e362f41feeff6d181abccb6368c8f4cec160018054611576919061390d565b838342336001600454611589919061390d565b60405161159b969594939291906143fc565b60405180910390a15050565b60056020528060005260406000206000915090508060000154908060010180546115d0906139ae565b80601f01602080910402602001604051908101604052809291908181526020018280546115fc906139ae565b80156116495780601f1061161e57610100808354040283529160200191611649565b820191906000526020600020905b81548152906001019060200180831161162c57829003601f168201915b50505050509080600201805461165e906139ae565b80601f016020809104026020016040519081016040528092919081815260200182805461168a906139ae565b80156116d75780601f106116ac576101008083540402835291602001916116d7565b820191906000526020600020905b8154815290600101906020018083116116ba57829003601f168201915b5050505050908060030180546116ec906139ae565b80601f0160208091040260200160405190810160405280929190818152602001828054611718906139ae565b80156117655780601f1061173a57610100808354040283529160200191611765565b820191906000526020600020905b81548152906001019060200180831161174857829003601f168201915b5050505050908060040154908060050154908060060154908060070154908060080160009054906101000a900473ffffffffffffffffffffffffffffffffffffffff16905089565b816005600083815260200190815260200160002060030190805190602001906117d79291906118ac565b505050565b73__setDNN________________________________630917085c60086004546009888888886040518863ffffffff1660e01b8152600401611823979695949392919061446b565b60006040518083038186803b15801561183b57600080fd5b505af415801561184f573d6000803e3d6000fd5b5050505060046000815480929190611866906138c4565b91905055507fa2e1d286e25c6fce64acccdfd7a54d53cce2f617ddff648ab1dbb3458ccdd95b33858560405161189e939291906144f6565b60405180910390a150505050565b8280546118b8906139ae565b90600052602060002090601f0160209004810192826118da5760008555611921565b82601f106118f357805160ff1916838001178555611921565b82800160010185558215611921579182015b82811115611920578251825591602001919060010190611905565b5b50905061192e9190611932565b5090565b5b8082111561194b576000816000905550600101611933565b5090565b6000604051905090565b600080fd5b600080fd5b600073ffffffffffffffffffffffffffffffffffffffff82169050919050565b600061198e82611963565b9050919050565b61199e81611983565b81146119a957600080fd5b50565b6000813590506119bb81611995565b92915050565b6000602082840312156119d7576119d6611959565b5b60006119e5848285016119ac565b91505092915050565b600081519050919050565b600082825260208201905092915050565b6000819050602082019050919050565b6000819050919050565b611a2d81611a1a565b82525050565b611a3c81611983565b82525050565b600081519050919050565b600082825260208201905092915050565b60005b83811015611a7c578082015181840152602081019050611a61565b83811115611a8b576000848401525b50505050565b6000601f19601f8301169050919050565b6000611aad82611a42565b611ab78185611a4d565b9350611ac7818560208601611a5e565b611ad081611a91565b840191505092915050565b600060a083016000830151611af36000860182611a24565b506020830151611b066020860182611a24565b506040830151611b196040860182611a33565b5060608301518482036060860152611b318282611aa2565b9150506080830151611b466080860182611a24565b508091505092915050565b6000611b5d8383611adb565b905092915050565b6000602082019050919050565b6000611b7d826119ee565b611b8781856119f9565b935083602082028501611b9985611a0a565b8060005b85811015611bd55784840389528151611bb68582611b51565b9450611bc183611b65565b925060208a01995050600181019050611b9d565b50829750879550505050505092915050565b60006020820190508181036000830152611c018184611b72565b905092915050565b611c1281611a1a565b82525050565b6000602082019050611c2d6000830184611c09565b92915050565b611c3c81611a1a565b8114611c4757600080fd5b50565b600081359050611c5981611c33565b92915050565b600060208284031215611c7557611c74611959565b5b6000611c8384828501611c4a565b91505092915050565b60008160000b9050919050565b611ca281611c8c565b82525050565b6000602082019050611cbd6000830184611c99565b92915050565b6000819050919050565b611cd681611cc3565b82525050565b611ce581611983565b82525050565b6000608082019050611d006000830187611ccd565b611d0d6020830186611cdc565b611d1a6040830185611c09565b611d276060830184611c09565b95945050505050565b6000608082019050611d456000830187611c09565b611d526020830186611c09565b611d5f6040830185611c09565b611d6c6060830184611c09565b95945050505050565b600081519050919050565b600082825260208201905092915050565b6000819050602082019050919050565b600081519050919050565b600082825260208201905092915050565b6000819050602082019050919050565b600061010083016000830151611de66000860182611a24565b5060208301518482036020860152611dfe8282611aa2565b9150506040830151611e136040860182611a24565b5060608301518482036060860152611e2b8282611aa2565b91505060808301518482036080860152611e458282611aa2565b91505060a083015184820360a0860152611e5f8282611aa2565b91505060c0830151611e7460c0860182611a24565b5060e0830151611e8760e0860182611a33565b508091505092915050565b6000611e9e8383611dcd565b905092915050565b6000602082019050919050565b6000611ebe82611da1565b611ec88185611dac565b935083602082028501611eda85611dbd565b8060005b85811015611f165784840389528151611ef78582611e92565b9450611f0283611ea6565b925060208a01995050600181019050611ede565b50829750879550505050505092915050565b600081519050919050565b600082825260208201905092915050565b6000819050602082019050919050565b6000611f608383611a24565b60208301905092915050565b6000602082019050919050565b6000611f8482611f28565b611f8e8185611f33565b9350611f9983611f44565b8060005b83811015611fca578151611fb18882611f54565b9750611fbc83611f6c565b925050600181019050611f9d565b5085935050505092915050565b600061012083016000830151611ff06000860182611a24565b5060208301516120036020860182611a24565b506040830151848203604086015261201b8282611aa2565b91505060608301516120306060860182611a24565b5060808301516120436080860182611a33565b5060a083015161205660a0860182611a24565b5060c083015161206960c0860182611a24565b5060e083015184820360e08601526120818282611eb3565b91505061010083015184820361010086015261209d8282611f79565b9150508091505092915050565b60006120b68383611fd7565b905092915050565b6000602082019050919050565b60006120d682611d75565b6120e08185611d80565b9350836020820285016120f285611d91565b8060005b8581101561212e578484038952815161210f85826120aa565b945061211a836120be565b925060208a019950506001810190506120f6565b50829750879550505050505092915050565b6000602082019050818103600083015261215a81846120cb565b905092915050565b61216b81611c8c565b811461217657600080fd5b50565b60008135905061218881612162565b92915050565b600080fd5b600080fd5b7f4e487b7100000000000000000000000000000000000000000000000000000000600052604160045260246000fd5b6121d082611a91565b810181811067ffffffffffffffff821117156121ef576121ee612198565b5b80604052505050565b600061220261194f565b905061220e82826121c7565b919050565b600067ffffffffffffffff82111561222e5761222d612198565b5b61223782611a91565b9050602081019050919050565b82818337600083830152505050565b600061226661226184612213565b6121f8565b90508281526020810184848401111561228257612281612193565b5b61228d848285612244565b509392505050565b600082601f8301126122aa576122a961218e565b5b81356122ba848260208601612253565b91505092915050565b6000806000606084860312156122dc576122db611959565b5b60006122ea86828701612179565b93505060206122fb86828701611c4a565b925050604084013567ffffffffffffffff81111561231c5761231b61195e565b5b61232886828701612295565b9150509250925092565b6000806040838503121561234957612348611959565b5b600061235785828601612179565b925050602083013567ffffffffffffffff8111156123785761237761195e565b5b61238485828601612295565b9150509250929050565b60006020820190506123a36000830184611cdc565b92915050565b600082825260208201905092915050565b60006123c582611a42565b6123cf81856123a9565b93506123df818560208601611a5e565b6123e881611a91565b840191505092915050565b600060a0820190506124086000830188611c09565b6124156020830187611c09565b6124226040830186611cdc565b818103606083015261243481856123ba565b90506124436080830184611c09565b9695505050505050565b600081519050919050565b600082825260208201905092915050565b6000819050602082019050919050565b61248281611c8c565b82525050565b600081519050919050565b600082825260208201905092915050565b60006124af82612488565b6124b98185612493565b93506124c9818560208601611a5e565b6124d281611a91565b840191505092915050565b60006060830160008301516124f56000860182611a24565b5060208301516125086020860182612479565b506040830151848203604086015261252082826124a4565b9150508091505092915050565b600061253983836124dd565b905092915050565b6000602082019050919050565b60006125598261244d565b6125638185612458565b93508360208202850161257585612469565b8060005b858110156125b15784840389528151612592858261252d565b945061259d83612541565b925060208a01995050600181019050612579565b50829750879550505050505092915050565b600060208201905081810360008301526125dd818461254e565b905092915050565b600060e0820190506125fa600083018a611c09565b6126076020830189611c09565b818103604083015261261981886123ba565b90506126286060830187611c09565b6126356080830186611cdc565b61264260a0830185611c09565b61264f60c0830184611c09565b98975050505050505050565b60008060006060848603121561267457612673611959565b5b600084013567ffffffffffffffff8111156126925761269161195e565b5b61269e86828701612295565b93505060206126af86828701611c4a565b92505060406126c086828701611c4a565b9150509250925092565b6000610140820190506126e0600083018d611cdc565b81810360208301526126f2818c6123ba565b90508181036040830152612706818b6123ba565b9050818103606083015261271a818a6123ba565b9050818103608083015261272e81896123ba565b905061273d60a0830188611c99565b61274a60c0830187611c09565b61275760e0830186611ccd565b612765610100830185611ccd565b612773610120830184611ccd565b9b9a5050505050505050505050565b6000806040838503121561279957612798611959565b5b60006127a785828601612179565b92505060206127b885828601611c4a565b9150509250929050565b60008115159050919050565b6127d7816127c2565b81146127e257600080fd5b50565b6000813590506127f4816127ce565b92915050565b6000806040838503121561281157612810611959565b5b600061281f85828601611c4a565b9250506020612830858286016127e5565b9150509250929050565b6000806040838503121561285157612850611959565b5b600061285f85828601612179565b9250506020612870858286016119ac565b9150509250929050565b600080600080600080600060e0888a03121561289957612898611959565b5b60006128a78a828b01612179565b97505060206128b88a828b01611c4a565b965050604088013567ffffffffffffffff8111156128d9576128d861195e565b5b6128e58a828b01612295565b95505060606128f68a828b01611c4a565b945050608088013567ffffffffffffffff8111156129175761291661195e565b5b6129238a828b01612295565b93505060a088013567ffffffffffffffff8111156129445761294361195e565b5b6129508a828b01612295565b92505060c088013567ffffffffffffffff8111156129715761297061195e565b5b61297d8a828b01612295565b91505092959891949750929550565b600081519050919050565b600082825260208201905092915050565b6000819050602082019050919050565b6129c181611cc3565b82525050565b6000610180830160008301516129e06000860182611a24565b50602083015184820360208601526129f88282611aa2565b91505060408301518482036040860152612a128282611aa2565b91505060608301518482036060860152612a2c8282611aa2565b9150506080830151612a4160808601826129b8565b5060a0830151612a5460a08601826129b8565b5060c0830151612a6760c0860182611a24565b5060e0830151612a7a60e0860182611a24565b50610100830151612a8f610100860182611a33565b50610120830151848203610120860152612aa98282611f79565b915050610140830151848203610140860152612ac58282611eb3565b915050610160830151848203610160860152612ae18282611f79565b9150508091505092915050565b6000612afa83836129c7565b905092915050565b6000602082019050919050565b6000612b1a8261298c565b612b248185612997565b935083602082028501612b36856129a8565b8060005b85811015612b725784840389528151612b538582612aee565b9450612b5e83612b02565b925060208a01995050600181019050612b3a565b50829750879550505050505092915050565b60006020820190508181036000830152612b9e8184612b0f565b905092915050565b600082825260208201905092915050565b6000612bc282611da1565b612bcc8185612ba6565b935083602082028501612bde85611dbd565b8060005b85811015612c1a5784840389528151612bfb8582611e92565b9450612c0683611ea6565b925060208a01995050600181019050612be2565b50829750879550505050505092915050565b60006020820190508181036000830152612c468184612bb7565b905092915050565b60008060408385031215612c6557612c64611959565b5b600083013567ffffffffffffffff811115612c8357612c8261195e565b5b612c8f85828601612295565b925050602083013567ffffffffffffffff811115612cb057612caf61195e565b5b612cbc85828601612295565b9150509250929050565b600061012082019050612cdc600083018c611c09565b8181036020830152612cee818b6123ba565b90508181036040830152612d02818a6123ba565b90508181036060830152612d1681896123ba565b9050612d256080830188611ccd565b612d3260a0830187611ccd565b612d3f60c0830186611c09565b612d4c60e0830185611c09565b612d5a610100830184611cdc565b9a9950505050505050505050565b60008060408385031215612d7f57612d7e611959565b5b600083013567ffffffffffffffff811115612d9d57612d9c61195e565b5b612da985828601612295565b9250506020612dba85828601611c4a565b9150509250929050565b60008060008060808587031215612dde57612ddd611959565b5b600085013567ffffffffffffffff811115612dfc57612dfb61195e565b5b612e0887828801612295565b945050602085013567ffffffffffffffff811115612e2957612e2861195e565b5b612e3587828801612295565b935050604085013567ffffffffffffffff811115612e5657612e5561195e565b5b612e6287828801612295565b925050606085013567ffffffffffffffff811115612e8357612e8261195e565b5b612e8f87828801612295565b91505092959194509250565b8082525050565b8082525050565b612eb281611983565b82525050565b6000606082019050612ecd6000830186612e9b565b612eda6020830185612ea2565b612ee76040830184612ea9565b949350505050565b600067ffffffffffffffff821115612f0a57612f09612198565b5b602082029050602081019050919050565b600080fd5b600080fd5b600080fd5b600081519050612f3981611c33565b92915050565b600081519050612f4e81611995565b92915050565b6000612f67612f6284612213565b6121f8565b905082815260208101848484011115612f8357612f82612193565b5b612f8e848285611a5e565b509392505050565b600082601f830112612fab57612faa61218e565b5b8151612fbb848260208601612f54565b91505092915050565b600060a08284031215612fda57612fd9612f20565b5b612fe460a06121f8565b90506000612ff484828501612f2a565b600083015250602061300884828501612f2a565b602083015250604061301c84828501612f3f565b604083015250606082015167ffffffffffffffff8111156130405761303f612f25565b5b61304c84828501612f96565b606083015250608061306084828501612f2a565b60808301525092915050565b600061307f61307a84612eef565b6121f8565b905080838252602082019050602084028301858111156130a2576130a1612f1b565b5b835b818110156130e957805167ffffffffffffffff8111156130c7576130c661218e565b5b8086016130d48982612fc4565b855260208501945050506020810190506130a4565b5050509392505050565b600082601f8301126131085761310761218e565b5b815161311884826020860161306c565b91505092915050565b60006020828403121561313757613136611959565b5b600082015167ffffffffffffffff8111156131555761315461195e565b5b613161848285016130f3565b91505092915050565b600060408201905061317f6000830185612ea2565b61318c6020830184612ea9565b9392505050565b600080600080608085870312156131ad576131ac611959565b5b60006131bb87828801612f2a565b94505060206131cc87828801612f2a565b93505060406131dd87828801612f2a565b92505060606131ee87828801612f2a565b91505092959194509250565b8082525050565b8082525050565b61321181611a1a565b82525050565b600060608201905061322c60008301866131fa565b6132396020830185613201565b6132466040830184613208565b949350505050565b600067ffffffffffffffff82111561326957613268612198565b5b602082029050602081019050919050565b600067ffffffffffffffff82111561329557613294612198565b5b602082029050602081019050919050565b600061010082840312156132bd576132bc612f20565b5b6132c86101006121f8565b905060006132d884828501612f2a565b600083015250602082015167ffffffffffffffff8111156132fc576132fb612f25565b5b61330884828501612f96565b602083015250604061331c84828501612f2a565b604083015250606082015167ffffffffffffffff8111156133405761333f612f25565b5b61334c84828501612f96565b606083015250608082015167ffffffffffffffff8111156133705761336f612f25565b5b61337c84828501612f96565b60808301525060a082015167ffffffffffffffff8111156133a05761339f612f25565b5b6133ac84828501612f96565b60a08301525060c06133c084828501612f2a565b60c08301525060e06133d484828501612f3f565b60e08301525092915050565b60006133f36133ee8461327a565b6121f8565b9050808382526020820190506020840283018581111561341657613415612f1b565b5b835b8181101561345d57805167ffffffffffffffff81111561343b5761343a61218e565b5b80860161344889826132a6565b85526020850194505050602081019050613418565b5050509392505050565b600082601f83011261347c5761347b61218e565b5b815161348c8482602086016133e0565b91505092915050565b600067ffffffffffffffff8211156134b0576134af612198565b5b602082029050602081019050919050565b60006134d46134cf84613495565b6121f8565b905080838252602082019050602084028301858111156134f7576134f6612f1b565b5b835b81811015613520578061350c8882612f2a565b8452602084019350506020810190506134f9565b5050509392505050565b600082601f83011261353f5761353e61218e565b5b815161354f8482602086016134c1565b91505092915050565b6000610120828403121561356f5761356e612f20565b5b61357a6101206121f8565b9050600061358a84828501612f2a565b600083015250602061359e84828501612f2a565b602083015250604082015167ffffffffffffffff8111156135c2576135c1612f25565b5b6135ce84828501612f96565b60408301525060606135e284828501612f2a565b60608301525060806135f684828501612f3f565b60808301525060a061360a84828501612f2a565b60a08301525060c061361e84828501612f2a565b60c08301525060e082015167ffffffffffffffff81111561364257613641612f25565b5b61364e84828501613467565b60e08301525061010082015167ffffffffffffffff81111561367357613672612f25565b5b61367f8482850161352a565b6101008301525092915050565b600061369f61369a8461324e565b6121f8565b905080838252602082019050602084028301858111156136c2576136c1612f1b565b5b835b8181101561370957805167ffffffffffffffff8111156136e7576136e661218e565b5b8086016136f48982613558565b855260208501945050506020810190506136c4565b5050509392505050565b600082601f8301126137285761372761218e565b5b815161373884826020860161368c565b91505092915050565b60006020828403121561375757613756611959565b5b600082015167ffffffffffffffff8111156137755761377461195e565b5b61378184828501613713565b91505092915050565b61379381611c8c565b82525050565b600082825260208201905092915050565b60006137b582611a42565b6137bf8185613799565b93506137cf818560208601611a5e565b6137d881611a91565b840191505092915050565b6000610160820190506137f9600083018e612ea2565b613806602083018d6131fa565b613813604083018c613208565b613820606083018b612e9b565b61382d608083018a613208565b61383a60a0830189613208565b61384760c0830188613208565b61385460e0830187613201565b61386261010083018661378a565b613870610120830185613208565b81810361014083015261388381846137aa565b90509c9b505050505050505050505050565b7f4e487b7100000000000000000000000000000000000000000000000000000000600052601160045260246000fd5b60006138cf82611a1a565b91507fffffffffffffffffffffffffffffffffffffffffffffffffffffffffffffffff82141561390257613901613895565b5b600182019050919050565b600061391882611a1a565b915061392383611a1a565b92508282101561393657613935613895565b5b828203905092915050565b60006060820190506139566000830186612ea2565b613963602083018561378a565b818103604083015261397581846137aa565b9050949350505050565b7f4e487b7100000000000000000000000000000000000000000000000000000000600052602260045260246000fd5b600060028204905060018216806139c657607f821691505b602082108114156139da576139d961397f565b5b50919050565b8082525050565b60006060820190506139fc6000830186612ea2565b613a0960208301856139e0565b613a166040830184612ea9565b949350505050565b600067ffffffffffffffff821115613a3957613a38612198565b5b602082029050602081019050919050565b600081519050613a5981612162565b92915050565b600067ffffffffffffffff821115613a7a57613a79612198565b5b613a8382611a91565b9050602081019050919050565b6000613aa3613a9e84613a5f565b6121f8565b905082815260208101848484011115613abf57613abe612193565b5b613aca848285611a5e565b509392505050565b600082601f830112613ae757613ae661218e565b5b8151613af7848260208601613a90565b91505092915050565b600060608284031215613b1657613b15612f20565b5b613b2060606121f8565b90506000613b3084828501612f2a565b6000830152506020613b4484828501613a4a565b602083015250604082015167ffffffffffffffff811115613b6857613b67612f25565b5b613b7484828501613ad2565b60408301525092915050565b6000613b93613b8e84613a1e565b6121f8565b90508083825260208201905060208402830185811115613bb657613bb5612f1b565b5b835b81811015613bfd57805167ffffffffffffffff811115613bdb57613bda61218e565b5b808601613be88982613b00565b85526020850194505050602081019050613bb8565b5050509392505050565b600082601f830112613c1c57613c1b61218e565b5b8151613c2c848260208601613b80565b91505092915050565b600060208284031215613c4b57613c4a611959565b5b600082015167ffffffffffffffff811115613c6957613c6861195e565b5b613c7584828501613c07565b91505092915050565b600061012082019050613c94600083018c6139e0565b613ca1602083018b612ea2565b613cae604083018a6131fa565b613cbb6060830189613208565b613cc86080830188613201565b613cd560a0830187613208565b81810360c0830152613ce781866137aa565b9050613cf660e0830185613208565b613d04610100830184613208565b9a9950505050505050505050565b600060c082019050613d276000830189611c09565b613d346020830188611c09565b8181036040830152613d4681876123ba565b9050613d556060830186611cdc565b613d626080830185611c09565b613d6f60a0830184611c09565b979650505050505050565b600060a082019050613d8f60008301886131fa565b613d9c6020830187613201565b613da96040830186612e9b565b613db6606083018561378a565b613dc36080830184613208565b9695505050505050565b613dd6816127c2565b82525050565b600060e082019050613df1600083018a612e9b565b613dfe6020830189612ea2565b613e0b60408301886139e0565b613e186060830187613201565b613e2560808301866131fa565b613e3260a0830185613208565b613e3f60c0830184613dcd565b98975050505050505050565b6000602082019050613e606000830184611ccd565b92915050565b6000606082019050613e7b6000830186613201565b613e886020830185612ea2565b613e956040830184612ea9565b949350505050565b6000608082019050613eb26000830187612ea9565b613ebf6020830186612ea2565b613ecc604083018561378a565b613ed96060830184612ea9565b95945050505050565b600061014082019050613ef8600083018d612ea2565b613f05602083018c6131fa565b613f12604083018b613201565b613f1f606083018a61378a565b613f2c6080830189613208565b81810360a0830152613f3e81886137aa565b9050613f4d60c0830187613208565b81810360e0830152613f5f81866137aa565b9050818103610100830152613f7481856137aa565b9050818103610120830152613f8981846137aa565b90509b9a5050505050505050505050565b6000606082019050613faf60008301866131fa565b613fbc6020830185612ea2565b613fc96040830184612ea9565b949350505050565b600067ffffffffffffffff821115613fec57613feb612198565b5b602082029050602081019050919050565b61400681611cc3565b811461401157600080fd5b50565b60008151905061402381613ffd565b92915050565b600061018082840312156140405761403f612f20565b5b61404b6101806121f8565b9050600061405b84828501612f2a565b600083015250602082015167ffffffffffffffff81111561407f5761407e612f25565b5b61408b84828501612f96565b602083015250604082015167ffffffffffffffff8111156140af576140ae612f25565b5b6140bb84828501612f96565b604083015250606082015167ffffffffffffffff8111156140df576140de612f25565b5b6140eb84828501612f96565b60608301525060806140ff84828501614014565b60808301525060a061411384828501614014565b60a08301525060c061412784828501612f2a565b60c08301525060e061413b84828501612f2a565b60e08301525061010061415084828501612f3f565b6101008301525061012082015167ffffffffffffffff81111561417657614175612f25565b5b6141828482850161352a565b6101208301525061014082015167ffffffffffffffff8111156141a8576141a7612f25565b5b6141b484828501613467565b6101408301525061016082015167ffffffffffffffff8111156141da576141d9612f25565b5b6141e68482850161352a565b6101608301525092915050565b600061420661420184613fd1565b6121f8565b9050808382526020820190506020840283018581111561422957614228612f1b565b5b835b8181101561427057805167ffffffffffffffff81111561424e5761424d61218e565b5b80860161425b8982614029565b8552602085019450505060208101905061422b565b5050509392505050565b600082601f83011261428f5761428e61218e565b5b815161429f8482602086016141f3565b91505092915050565b6000602082840312156142be576142bd611959565b5b600082015167ffffffffffffffff8111156142dc576142db61195e565b5b6142e88482850161427a565b91505092915050565b600060808201905061430660008301876131fa565b6143136020830186613201565b614320604083018561378a565b61432d6060830184613208565b95945050505050565b60006020828403121561434c5761434b611959565b5b600082015167ffffffffffffffff81111561436a5761436961195e565b5b61437684828501613467565b91505092915050565b600060e082019050614394600083018a6139e0565b6143a16020830189612ea2565b6143ae60408301886131fa565b6143bb6060830187613208565b6143c86080830186613208565b81810360a08301526143da81856137aa565b905081810360c08301526143ee81846137aa565b905098975050505050505050565b600060c0820190506144116000830189611c09565b818103602083015261442381886123ba565b9050818103604083015261443781876123ba565b90506144466060830186611c09565b6144536080830185611cdc565b61446060a0830184611c09565b979650505050505050565b600060e082019050614480600083018a612ea2565b61448d6020830189613208565b61449a60408301886139e0565b81810360608301526144ac81876137aa565b905081810360808301526144c081866137aa565b905081810360a08301526144d481856137aa565b905081810360c08301526144e881846137aa565b905098975050505050505050565b600060608201905061450b6000830186611cdc565b818103602083015261451d81856123ba565b9050818103604083015261453181846123ba565b905094935050505056fea2646970667358221220d54d58b895491cf2fb968ceefcd02cf7122facdce487b3dcae2cfb356948544064736f6c634300080b0033",
  "immutableReferences": {},
  "source": "//SPDX-License-Identifier: UNLICENSED\r\npragma solidity ^0.8.0;\r\n\r\nimport \"./Structs.sol\";\r\nimport \"./setDNN.sol\";\r\nimport \"./getDNN.sol\";\r\n\r\ncontract DNN {\r\n\r\n    //////////////////////////EVENTS///////////////////////////////\r\n    event UserCreated(address userId, string name, string email);\r\n\r\n    event FileUploaded(\r\n        uint256 articleId,\r\n        string fileHash,\r\n        uint256 fileSize,\r\n        string fileType,\r\n        string fileName,\r\n        string fileDescription,\r\n        uint256 uploadTime,\r\n        address uploader\r\n    );\r\n\r\n    event CommentCreated(\r\n        uint256 commentId,\r\n        uint256 articleId,\r\n        address auther,\r\n        string message,\r\n        uint256 voteId\r\n    );\r\n\r\n    event SummaryCreated(\r\n        uint articleId,\r\n        uint256 summaryId,\r\n        string description,\r\n        address auther,\r\n        uint256 uploadTime,\r\n        uint voteId\r\n    );\r\n\r\n    event ArticleUploaded(\r\n        uint256 articleId,\r\n        string articleTopic,\r\n        string articleDescription,\r\n        uint256 uploadTime,\r\n        address auther,\r\n        uint voteId\r\n    );\r\n\r\n    event Upvoted(int256 voteCount);\r\n    //////////////////////////EVENTS ENDS///////////////////////////////\r\n\r\n    //////////////////////////STATES///////////////////////////////\r\n\r\n    address public owner;\r\n    uint256 public articleCount;\r\n    uint256 public commentCount;\r\n    uint256 public summaryCount;\r\n    uint256 public voteCount;\r\n\r\n    mapping(uint256 => Article) public articles;\r\n    mapping(uint256 => Comment) public comments;\r\n    mapping(uint256 => Summary) public summaries;\r\n    mapping(address => User) public users;\r\n    mapping(uint256 => Vote) public votes;\r\n\r\n    constructor() {\r\n        owner = msg.sender;\r\n    }\r\n\r\n    //////////////////////////STATES ENDS///////////////////////////////\r\n\r\n\r\n    //////////////////////////METHODS///////////////////////////////\r\n\r\n    function login(\r\n        string memory _name,\r\n        string memory _email,\r\n        string memory _about,\r\n        string memory _profilePhotoUrl\r\n    ) public {\r\n        setDNN.login(\r\n            users,\r\n            voteCount,\r\n            votes,\r\n            _name,\r\n            _email,\r\n            _about,\r\n            _profilePhotoUrl\r\n        );\r\n        voteCount++;\r\n        emit UserCreated(msg.sender, _name, _email);\r\n    }\r\n\r\n    //- 0 email 1 about 2 profile photo\r\n    function changeAboutEmailPhoto(int8 _action, string memory _aboutEmailPhoto)\r\n        public\r\n    {\r\n        setDNN.changeAboutEmailPhoto(users, _action, _aboutEmailPhoto);\r\n    }\r\n\r\n    function ownerUpgradePosition(int8 _position, address _candidate) public {\r\n        return setDNN.ownerUpgradePosition(owner, users, _position, _candidate);\r\n    }\r\n\r\n    //-\r\n    function uploadArticle(\r\n        string memory _articleTopic,\r\n        string memory _articleDescription\r\n    ) public {\r\n        setDNN.uploadArticle(\r\n            votes,\r\n            users,\r\n            articles,\r\n            articleCount,\r\n            voteCount,\r\n            _articleTopic,\r\n            _articleDescription\r\n        );\r\n        voteCount++;\r\n        articleCount++;\r\n        emit ArticleUploaded(\r\n            articleCount - 1,\r\n            _articleTopic,\r\n            _articleDescription,\r\n            block.timestamp,\r\n            msg.sender,\r\n            voteCount-1\r\n        );\r\n    }\r\n\r\n    //-\r\n    function additionalNewInfo(string memory _newInfo, uint256 _articleId)\r\n        public\r\n    {\r\n        articles[_articleId].additionalNewInfo = _newInfo;\r\n    }\r\n\r\n    //-\r\n    function createSummary(\r\n        string memory _description,\r\n        uint256 _articleId,\r\n        uint256 _motion\r\n    ) public {\r\n        setDNN.createSummary(\r\n            votes,\r\n            users,\r\n            articles,\r\n            summaryCount,\r\n            summaries,\r\n            voteCount,\r\n            _description,\r\n            _articleId,\r\n            _motion\r\n        );\r\n        voteCount++;\r\n        summaryCount++;\r\n        emit SummaryCreated(\r\n            _articleId,\r\n            summaryCount - 1,\r\n            _description,\r\n            msg.sender,\r\n            block.timestamp,\r\n            voteCount-1\r\n        );\r\n    }\r\n\r\n    function uploadMedia(\r\n        int8 _action,\r\n        uint256 _Id,\r\n        string memory _fileHash,\r\n        uint256 _fileSize,\r\n        string memory _fileType,\r\n        string memory _fileName,\r\n        string memory _fileDescription\r\n    ) public {\r\n        return\r\n            setDNN.uploadMedia(\r\n                users,\r\n                articles,\r\n                summaries,\r\n                _action,\r\n                _Id,\r\n                _fileHash,\r\n                _fileSize,\r\n                _fileType,\r\n                _fileName,\r\n                _fileDescription\r\n            );\r\n    }\r\n\r\n    //0 article 1 summary\r\n    function commentArticle(\r\n        int8 _action,\r\n        uint256 _Id,\r\n        string memory _message\r\n    ) public {\r\n        setDNN.commentArticle(\r\n            users,\r\n            articles,\r\n            articleCount,\r\n            comments,\r\n            commentCount,\r\n            summaryCount,\r\n            voteCount,\r\n            summaries,\r\n            _action,\r\n            _Id,\r\n            _message\r\n        );\r\n        votes[voteCount].voteObject = 3;\r\n        votes[voteCount].id = commentCount;\r\n        voteCount++;\r\n        commentCount++;\r\n        emit CommentCreated(\r\n            commentCount - 1,\r\n            _Id,\r\n            msg.sender,\r\n            _message,\r\n            voteCount - 1\r\n        );\r\n    }\r\n\r\n    //- 4 actions\r\n    function upvote(uint256 _voteId, bool _vote) public {\r\n        setDNN.upvote(\r\n            comments,\r\n            users,\r\n            votes,\r\n            summaries,\r\n            articles,\r\n            _voteId,\r\n            _vote\r\n        );\r\n        emit Upvoted(votes[_voteId].voteCount);\r\n    }\r\n\r\n    function whetherVoted(uint256 _voteId) public view returns (int8) {\r\n        return votes[_voteId].votes[msg.sender];\r\n    }\r\n\r\n    function getUserArticles(address _userId)\r\n        public\r\n        view\r\n        returns (Article[] memory)\r\n    {\r\n        return getDNN.getUserArticles(articles, users, _userId);\r\n    }\r\n\r\n    function getSummaries(address _userId)\r\n        public\r\n        view\r\n        returns (Summary[] memory)\r\n    {\r\n        return getDNN.getSummaries(summaries, users, _userId);\r\n    }\r\n\r\n    function getSummariesA(uint256 _articleId)\r\n        public\r\n        view\r\n        returns (Summary[] memory)\r\n    {\r\n        return getDNN.getSummariesA(articles, summaries, _articleId);\r\n    }\r\n\r\n    function getFiles(int8 _action, uint256 _Id)\r\n        public\r\n        view\r\n        returns (File[] memory)\r\n    {\r\n        return getDNN.getFiles(articles, summaries, _action, _Id);\r\n    }\r\n\r\n    //- return change\r\n    function getComments(address _userId)\r\n        public\r\n        view\r\n        returns (Comment[] memory)\r\n    {\r\n        return getDNN.getComments(comments, users, _userId);\r\n    }\r\n\r\n    //- return change\r\n    function getComments(int8 _action, uint256 _Id)\r\n        public\r\n        view\r\n        returns (Comment[] memory)\r\n    {\r\n        return getDNN.getComments(articles, summaries, comments, _action, _Id);\r\n    }\r\n\r\n    //-\r\n    function getUserVotes(address _userId)\r\n        public\r\n        view\r\n        returns (VoteReturn[] memory)\r\n    {\r\n        return getDNN.getUserVotes(users, votes, _userId);\r\n    }\r\n\r\n    function getUserStat(address _userId)\r\n        public\r\n        view\r\n        returns (\r\n            uint256,\r\n            uint256,\r\n            uint256,\r\n            uint256\r\n        )\r\n    {\r\n        return getDNN.getUserStat(users, _userId);\r\n    }\r\n\r\n    //////////////////////////METHODS ENDS///////////////////////////////\r\n}\r\n",
  "sourcePath": "D:\\webD\\hashNews\\src\\contracts\\DNN.sol",
  "compiler": {
    "name": "solc",
    "version": "0.8.11+commit.d7f03943.Emscripten.clang"
  },
  "schemaVersion": "3.4.2",
  "updatedAt": "2022-01-07T14:32:31.673Z",
  "networkType": "ethereum",
  "devdoc": {
    "kind": "dev",
    "methods": {},
    "version": 1
  },
  "userdoc": {
    "kind": "user",
    "methods": {},
    "version": 1
  }
}